{
  "contractName": "Recycloan",
  "abi": [
    {
      "inputs": [],
      "payable": false,
      "stateMutability": "nonpayable",
      "type": "constructor"
    },
    {
      "constant": true,
      "inputs": [],
      "name": "amount",
      "outputs": [
        {
          "internalType": "uint256",
          "name": "",
          "type": "uint256"
        }
      ],
      "payable": false,
      "stateMutability": "view",
      "type": "function"
    },
    {
      "constant": true,
      "inputs": [
        {
          "internalType": "uint256",
          "name": "",
          "type": "uint256"
        }
      ],
      "name": "borrowers",
      "outputs": [
        {
          "internalType": "address payable",
          "name": "",
          "type": "address"
        }
      ],
      "payable": false,
      "stateMutability": "view",
      "type": "function"
    },
    {
      "constant": true,
      "inputs": [],
      "name": "index",
      "outputs": [
        {
          "internalType": "uint256",
          "name": "",
          "type": "uint256"
        }
      ],
      "payable": false,
      "stateMutability": "view",
      "type": "function"
    },
    {
      "constant": true,
      "inputs": [],
      "name": "lender",
      "outputs": [
        {
          "internalType": "address payable",
          "name": "",
          "type": "address"
        }
      ],
      "payable": false,
      "stateMutability": "view",
      "type": "function"
    },
    {
      "constant": false,
      "inputs": [
        {
          "internalType": "address payable[]",
          "name": "initialBorrowers",
          "type": "address[]"
        }
      ],
      "name": "lend",
      "outputs": [],
      "payable": true,
      "stateMutability": "payable",
      "type": "function"
    },
    {
      "constant": false,
      "inputs": [],
      "name": "repay",
      "outputs": [],
      "payable": false,
      "stateMutability": "nonpayable",
      "type": "function"
    },
    {
      "constant": false,
      "inputs": [
        {
          "internalType": "address payable",
          "name": "borrower",
          "type": "address"
        }
      ],
      "name": "addBorrower",
      "outputs": [],
      "payable": false,
      "stateMutability": "nonpayable",
      "type": "function"
    },
    {
      "constant": true,
      "inputs": [],
      "name": "getBorrowers",
      "outputs": [
        {
          "internalType": "address payable[]",
          "name": "",
          "type": "address[]"
        }
      ],
      "payable": false,
      "stateMutability": "view",
      "type": "function"
    },
    {
      "constant": true,
      "inputs": [],
      "name": "getAmount",
      "outputs": [
        {
          "internalType": "uint256",
          "name": "",
          "type": "uint256"
        }
      ],
      "payable": false,
      "stateMutability": "view",
      "type": "function"
    },
    {
      "constant": true,
      "inputs": [],
      "name": "getIndex",
      "outputs": [
        {
          "internalType": "uint256",
          "name": "",
          "type": "uint256"
        }
      ],
      "payable": false,
      "stateMutability": "view",
      "type": "function"
    }
  ],
  "bytecode": "0x608060405234801561001057600080fd5b50336000806101000a81548173ffffffffffffffffffffffffffffffffffffffff021916908373ffffffffffffffffffffffffffffffffffffffff1602179055506108b4806100606000396000f3fe6080604052600436106100915760003560e01c806381045ead1161005957806381045ead14610277578063aa8c217c146102a2578063bcead63e146102cd578063d321fe2914610324578063e3a8e29c1461034f57610091565b80632986c0e5146100965780633d89a51f146100c1578063402d8883146101795780636854786a146101905780637924d93f146101fc575b600080fd5b3480156100a257600080fd5b506100ab6103a0565b6040518082815260200191505060405180910390f35b610177600480360360208110156100d757600080fd5b81019080803590602001906401000000008111156100f457600080fd5b82018360208201111561010657600080fd5b8035906020019184602083028401116401000000008311171561012857600080fd5b919080806020026020016040519081016040528093929190818152602001838360200280828437600081840152601f19601f8201169050808301925050505050505091929192905050506103a6565b005b34801561018557600080fd5b5061018e6104ca565b005b34801561019c57600080fd5b506101a56105e7565b6040518080602001828103825283818151815260200191508051906020019060200280838360005b838110156101e85780820151818401526020810190506101cd565b505050509050019250505060405180910390f35b34801561020857600080fd5b506102356004803603602081101561021f57600080fd5b8101908080359060200190929190505050610675565b604051808273ffffffffffffffffffffffffffffffffffffffff1673ffffffffffffffffffffffffffffffffffffffff16815260200191505060405180910390f35b34801561028357600080fd5b5061028c6106b1565b6040518082815260200191505060405180910390f35b3480156102ae57600080fd5b506102b76106bb565b6040518082815260200191505060405180910390f35b3480156102d957600080fd5b506102e26106c1565b604051808273ffffffffffffffffffffffffffffffffffffffff1673ffffffffffffffffffffffffffffffffffffffff16815260200191505060405180910390f35b34801561033057600080fd5b506103396106e6565b6040518082815260200191505060405180910390f35b34801561035b57600080fd5b5061039e6004803603602081101561037257600080fd5b81019080803573ffffffffffffffffffffffffffffffffffffffff1690602001909291905050506106f0565b005b60035481565b6000809054906101000a900473ffffffffffffffffffffffffffffffffffffffff1673ffffffffffffffffffffffffffffffffffffffff163373ffffffffffffffffffffffffffffffffffffffff16146103ff57600080fd5b655af3107a4000341161041157600080fd5b80600190805190602001906104279291906107b2565b5034600281905550600060038190555060035460018054905011156104c75760016003548154811061045557fe5b9060005260206000200160009054906101000a900473ffffffffffffffffffffffffffffffffffffffff1673ffffffffffffffffffffffffffffffffffffffff166108fc479081150290604051600060405180830381858888f193505050501580156104c5573d6000803e3d6000fd5b505b50565b6002544711156105e55760018080549050036003541161057b5760036000815480929190600101919050555060016003548154811061050557fe5b9060005260206000200160009054906101000a900473ffffffffffffffffffffffffffffffffffffffff1673ffffffffffffffffffffffffffffffffffffffff166108fc479081150290604051600060405180830381858888f19350505050158015610575573d6000803e3d6000fd5b506105e4565b6000809054906101000a900473ffffffffffffffffffffffffffffffffffffffff1673ffffffffffffffffffffffffffffffffffffffff166108fc479081150290604051600060405180830381858888f193505050501580156105e2573d6000803e3d6000fd5b505b5b565b6060600180548060200260200160405190810160405280929190818152602001828054801561066b57602002820191906000526020600020905b8160009054906101000a900473ffffffffffffffffffffffffffffffffffffffff1673ffffffffffffffffffffffffffffffffffffffff1681526020019060010190808311610621575b5050505050905090565b6001818154811061068257fe5b906000526020600020016000915054906101000a900473ffffffffffffffffffffffffffffffffffffffff1681565b6000600354905090565b60025481565b6000809054906101000a900473ffffffffffffffffffffffffffffffffffffffff1681565b6000600254905090565b6000809054906101000a900473ffffffffffffffffffffffffffffffffffffffff1673ffffffffffffffffffffffffffffffffffffffff163373ffffffffffffffffffffffffffffffffffffffff161461074957600080fd5b60018190806001815401808255809150509060018203906000526020600020016000909192909190916101000a81548173ffffffffffffffffffffffffffffffffffffffff021916908373ffffffffffffffffffffffffffffffffffffffff1602179055505050565b82805482825590600052602060002090810192821561082b579160200282015b8281111561082a5782518260006101000a81548173ffffffffffffffffffffffffffffffffffffffff021916908373ffffffffffffffffffffffffffffffffffffffff160217905550916020019190600101906107d2565b5b509050610838919061083c565b5090565b61087c91905b8082111561087857600081816101000a81549073ffffffffffffffffffffffffffffffffffffffff021916905550600101610842565b5090565b9056fea265627a7a72315820f7e495297043714d9d8a7e1e432a24fcd2e8b33c8ec5826a65ef69c3859dfe4164736f6c63430005100032",
  "source": "pragma solidity >=0.4.21 <0.6.0;\r\n\r\ncontract Recycloan {\r\n    address payable public lender;\r\n    address payable[] public borrowers;\r\n    uint public amount;\r\n    uint public index;\r\n    \r\n    constructor() public {\r\n        lender = msg.sender;\r\n    }\r\n\r\n    function lend(address payable[] memory initialBorrowers) public payable restricted {\r\n        require(msg.value > .0001 ether);\r\n        borrowers = initialBorrowers;\r\n        amount = msg.value;\r\n        index = 0;\r\n        if (borrowers.length > index) {\r\n            borrowers[index].transfer(address(this).balance);\r\n        }\r\n    }\r\n\r\n    function repay() public {\r\n        if (address(this).balance > amount) {\r\n            if (index <= borrowers.length - 1) {\r\n                index++;\r\n                borrowers[index].transfer(address(this).balance);\r\n            } else {\r\n                lender.transfer(address(this).balance);\r\n            }\r\n        }\r\n    }\r\n\r\n    function addBorrower(address payable borrower) public restricted {\r\n        borrowers.push(borrower);\r\n    }\r\n   \r\n    function getBorrowers() public view returns(address payable[] memory) {\r\n        return borrowers;\r\n    }\r\n\r\n    function getAmount() public view returns(uint) {\r\n        return amount;\r\n    }\r\n\r\n    function getIndex() public view returns(uint) {\r\n        return index;\r\n    }\r\n    \r\n    modifier restricted() {\r\n        require(msg.sender == lender);\r\n        _;\r\n    }\r\n}",
  "sourcePath": "C:/Users/Brian/Projects/Recycloan/Harmony/harmony20/harmonyERC20/contracts/Recycloan.sol",
  "compiler": {
    "name": "solc",
    "version": "0.5.16+commit.9c3226ce.Emscripten.clang"
  },
  "schemaVersion": "3.2.5",
  "updatedAt": "2020-09-26T21:09:26.327Z",
  "networkType": "ethereum",
  "devdoc": {
    "methods": {}
  },
  "userdoc": {
    "methods": {}
  }
}